{
  "transactions": [
    {
      "hash": "0x47f3f0bb401a45ad458c6345996faaffca189f0f61ca2001e949e3f5340c4610",
      "transactionType": "CALL",
      "contractName": null,
      "contractAddress": "0x779877a7b0d9e8603169ddbd7836e478b4624789",
      "function": "transferAndCall(address,uint256,bytes)",
      "arguments": [
        "0x9DdfaCa8183c41ad55329BdeeD9F6A8d53168B1B",
        "3000000000000000000",
        "0x9b31a85e851103d2d494df74b26509e754b3c5903a427cf53b89059918f07b14"
      ],
      "transaction": {
        "from": "0xf2de1e3000fbd29cd227afc3b86721987b4af701",
        "to": "0x779877a7b0d9e8603169ddbd7836e478b4624789",
        "gas": "0x1c1ff",
        "value": "0x0",
        "input": "0x4000aea00000000000000000000000009ddfaca8183c41ad55329bdeed9f6a8d53168b1b00000000000000000000000000000000000000000000000029a2241af62c0000000000000000000000000000000000000000000000000000000000000000006000000000000000000000000000000000000000000000000000000000000000209b31a85e851103d2d494df74b26509e754b3c5903a427cf53b89059918f07b14",
        "nonce": "0x28",
        "chainId": "0xaa36a7"
      },
      "additionalContracts": [],
      "isFixedGasLimit": false
    }
  ],
  "receipts": [
    {
      "status": "0x1",
      "cumulativeGasUsed": "0xea1be5",
      "logs": [
        {
          "address": "0x779877a7b0d9e8603169ddbd7836e478b4624789",
          "topics": [
            "0xddf252ad1be2c89b69c2b068fc378daa952ba7f163c4a11628f55a4df523b3ef",
            "0x000000000000000000000000f2de1e3000fbd29cd227afc3b86721987b4af701",
            "0x0000000000000000000000009ddfaca8183c41ad55329bdeed9f6a8d53168b1b"
          ],
          "data": "0x00000000000000000000000000000000000000000000000029a2241af62c0000",
          "blockHash": "0x271c35d800c3b280847c35d9357610a6e232d337b4831cba7527a8a0fa8aa972",
          "blockNumber": "0x6153b4",
          "transactionHash": "0x47f3f0bb401a45ad458c6345996faaffca189f0f61ca2001e949e3f5340c4610",
          "transactionIndex": "0x65",
          "logIndex": "0xac",
          "removed": false
        },
        {
          "address": "0x779877a7b0d9e8603169ddbd7836e478b4624789",
          "topics": [
            "0xe19260aff97b920c7df27010903aeb9c8d2be5d310a2c67824cf3f15396e4c16",
            "0x000000000000000000000000f2de1e3000fbd29cd227afc3b86721987b4af701",
            "0x0000000000000000000000009ddfaca8183c41ad55329bdeed9f6a8d53168b1b"
          ],
          "data": "0x00000000000000000000000000000000000000000000000029a2241af62c0000000000000000000000000000000000000000000000000000000000000000004000000000000000000000000000000000000000000000000000000000000000209b31a85e851103d2d494df74b26509e754b3c5903a427cf53b89059918f07b14",
          "blockHash": "0x271c35d800c3b280847c35d9357610a6e232d337b4831cba7527a8a0fa8aa972",
          "blockNumber": "0x6153b4",
          "transactionHash": "0x47f3f0bb401a45ad458c6345996faaffca189f0f61ca2001e949e3f5340c4610",
          "transactionIndex": "0x65",
          "logIndex": "0xad",
          "removed": false
        },
        {
          "address": "0x9ddfaca8183c41ad55329bdeed9f6a8d53168b1b",
          "topics": [
            "0x1ced9348ff549fceab2ac57cd3a9de38edaaab274b725ee82c23e8fc8c4eec7a",
            "0x9b31a85e851103d2d494df74b26509e754b3c5903a427cf53b89059918f07b14"
          ],
          "data": "0x000000000000000000000000000000000000000000000000000000000000000000000000000000000000000000000000000000000000000029a2241af62c0000",
          "blockHash": "0x271c35d800c3b280847c35d9357610a6e232d337b4831cba7527a8a0fa8aa972",
          "blockNumber": "0x6153b4",
          "transactionHash": "0x47f3f0bb401a45ad458c6345996faaffca189f0f61ca2001e949e3f5340c4610",
          "transactionIndex": "0x65",
          "logIndex": "0xae",
          "removed": false
        }
      ],
      "logsBloom": "0x00000004000000000000000000000000000000000020000000000000020000000004000000000000000000000000000000000000000000000000000000000000000000000000000000000008000000000000000000000000000024000020000008000000000000000000000000000000000000000000000000000010000040000000000000000000000000010000800000000020000000000000000000000000000000000000000000000000010000000000000000000000000004000000000000000002000000000000000000000000000100000000000100000000000000000010000000000000800000000000000000000000000000000000040000000001",
      "type": "0x2",
      "transactionHash": "0x47f3f0bb401a45ad458c6345996faaffca189f0f61ca2001e949e3f5340c4610",
      "transactionIndex": "0x65",
      "blockHash": "0x271c35d800c3b280847c35d9357610a6e232d337b4831cba7527a8a0fa8aa972",
      "blockNumber": "0x6153b4",
      "gasUsed": "0x133b1",
      "effectiveGasPrice": "0xaa8570f6e",
      "from": "0xf2de1e3000fbd29cd227afc3b86721987b4af701",
      "to": "0x779877a7b0d9e8603169ddbd7836e478b4624789",
      "contractAddress": null
    }
  ],
  "libraries": [],
  "pending": [],
  "returns": {},
  "timestamp": 1721986501,
  "chain": 11155111,
  "commit": "b2a5efa"
}